:0400000090EF03F08A
:1006000000008BEC03F083EC03F081B00AEF03F001
:100610000CEF03F022EF03F081B211EF03F013EFC0
:1006200003F022EF03F081B418EF03F01AEF03F0A8
:1006300022EF03F082908292828482968298829A3C
:1006400005EF03F081A027EF03F029EF03F03FEF60
:1006500003F081B22EEF03F030EF03F03FEF03F031
:1006600081B435EF03F037EF03F03FEF03F08290F2
:100670008292828482968288828A05EF03F081A02A
:1006800044EF03F046EF03F05CEF03F081A24BEF81
:1006900003F04DEF03F05CEF03F081B452EF03F091
:1006A00054EF03F05CEF03F0829082928294828692
:1006B0008298828A05EF03F081A061EF03F063EF77
:1006C00003F079EF03F081A268EF03F06AEF03F023
:1006D00079EF03F081A46FEF03F071EF03F079EF8E
:1006E00003F082808282829482868288829A05EFD9
:1006F00003F082808282828482968298829A05EFB9
:1007000003F000EF00F0070E936E000E956E0F0ED3
:10071000C16E83681200000ED36E000E9B6E120035
:06072000000101EF03F0EF
:020000040030CA
:0E000000FF02191EFF8181FF0FC00FE00F40AD
:00000001FF
