:04000000C6EF03F054
:100600000000D9EC03F0D4EC03F0CDEC03F096EC51
:1006100003F0AEEC03F0530E035C010E0458D8B0A7
:1006200014EF03F016EF03F01BEF03F081808192CB
:10063000819444EF03F0530E035C010E0458D8A0DC
:1006400024EF03F026EF03F036EF03F0670E035CB0
:10065000020E0458D8B02FEF03F031EF03F036EF5D
:1006600003F081808182819444EF03F0670E035C84
:10067000020E0458D8A03FEF03F041EF03F044EF1F
:1006800003F08180818281840104010E0258D8B078
:100690004CEF03F04EEF03F053EF03F08196819897
:1006A000818A07EF03F00104010E0258D8A05BEF26
:1006B00003F05DEF03F06CEF03F00104020E02584B
:1006C000D8B065EF03F067EF03F06CEF03F08186BD
:1006D0008198818A07EF03F00104020E0258D8A026
:1006E00074EF03F076EF03F084EF03F0030E025C87
:1006F000D8B07DEF03F07FEF03F084EF03F0818645
:100700008188818A07EF03F0030E025CD8A08BEF8B
:1007100003F08DEF03F092EF03F081868188819AD8
:1007200007EF03F007EF03F000EF00F0210EE82ED3
:10073000FED70000010EC26EC282C2B2A2EF03F069
:10074000A4EF03F09DEF03F0C4CF03F0046A03505D
:10075000056EC350036E05C004F01200210EE82E92
:10076000FED70000050EC26EC282C2B2BAEF03F01D
:10077000BCEF03F0B5EF03F0C4CF01F0026A015003
:10078000056EC350016E05C002F01200046A036AD0
:10079000026A016A000101EF03F0010EC26E0D0E44
:1007A000C16E870EC06E1200720ED36E000E9B6E6D
:0A07B0001200000E936E8168120023
:020000040030CA
:0E000000FF08191EFF8181FF0FC00FE00F40A7
:00000001FF
