:04000000D8EF1AF02B
:100600000054454D503A202020202020202020203A
:1006100020202020202020200050455243454E54C9
:100620003A202020202020202020202020202020B0
:100630000046414E20313A2020202020202020203A
:10064000200046414E20323A202020202020202029
:10065000202000524553313A202020202020202005
:1006600020200025302E31662563430025302E31B1
:1006700066256300696E66006E616E002564000089
:10068000000E0001E16F56C0E2F057C0E3F058C021
:10069000E4F059C0E5F0E5BF52EF03F050EF03F08E
:1006A00066EF03F0010EE16FE2C001F0E3C002F07B
:1006B000E4C003F0E5C004F089EC1AF001C0E2F0F8
:1006C00002C0E3F003C0E4F004C0E5F0000E000156
:1006D000E76F000EE66F90C0D5F091C0D6F0E15103
:1006E000D8B475EF03F077EF03F08BEF03F0E1512F
:1006F000D8A47DEF03F07FEF03F085EF03F0000E49
:10070000C76F2B0EC66F89EF03F0000EC76F2D0E5B
:10071000C66FC6C0E1F0E2C001F0E3C002F0E4C081
:1007200003F0E5C004F0C3EC14F001040210D8A4F7
:100730009CEF03F09EEF03F0CDEF03F00001E151D9
:10074000D8B4A5EF03F0A7EF03F0B0EF03F0E1C0DA
:1007500000F1D507D8A0D607000EE76F010EE66FAF
:10076000000EE625016E010EE721026E740E036E87
:100770006CEC1AF00001FD0ED527FF0ED62355C0F4
:100780000FF0000E106E010E116ED5C012F0D6C023
:1007900013F03DEC19F069EF08F0E2C001F0E3C09E
:1007A00002F0E4C003F0E5C004F0C3EC14F0015023
:1007B0000210D8A4DEEF03F0E0EF03F0FEEF03F049
:1007C0000001E151D8B4E7EF03F0E9EF03F0F2EFF5
:1007D00003F0E1C000F1D507D8A0D607000EE76FFF
:1007E000010EE66F000EE625016E010EE721026E96
:1007F000780E036E6CEC1AF0BAEF03F0000E0001F5
:10080000E86F000EE96F800EEA6F3F0EEB6F000E8F
:10081000D06F000ECF6FE2C001F0E3C002F0E4C081
:1008200003F0E5C004F0000E056E000E066E000E2B
:10083000076E000E086EF6EC17F0D8B022EF04F049
:1008400024EF04F003EF05F031EF04F0D1C0E8F03D
:10085000D2C0E9F0D3C0EAF0D4C0EBF00001CF4B36
:10086000D02BE8C00FF0E9C010F0EAC011F0EBC0E7
:1008700012F0000E136E000E146E200E156E410E57
:10088000166ECAEC0AF00FC0D1F010C0D2F011C041
:10089000D3F012C0D4F00001D151E25D016ED2510B
:1008A000E359026ED351E459036ED451E559046EF5
:1008B00070EC19F004BE68EF04F00450031002104D
:1008C00009E1020E015CD8A068EF04F06AEF04F0C1
:1008D00026EF04F0D1C028F0D2C029F0D3C02AF00E
:1008E000D4C02BF0E2C02CF0E3C02DF0E4C02EF019
:1008F000E5C02FF041EC14F0D8A081EF04F083EFB5
:1009000004F026EF04F00001E851E25D016EE951C8
:10091000E359026EEA51E459036EEB51E559046E56
:1009200070EC19F004BEA2EF04F0045003100210A2
:1009300007E1020E015CD8B0A0EF04F0A2EF04F0D2
:10094000EAEF04F0E8C0E2F0E9C0E3F0EAC0E4F066
:10095000EBC0E5F003EF05F0E8C028F0E9C029F0AE
:10096000EAC02AF0EBC02BF0000E2C6E000E2D6EAC
:10097000200E2E6E410E2F6EDFEC0CF028C0E8F03A
:1009800029C0E9F02AC0EAF02BC0EBF00001CF0744
:10099000D8A0D007E851E25D016EE951E359026E3B
:1009A000EA51E459036EEB51E559046E70EC19F00D
:1009B00004BEE8EF04F004500310021007E1020E39
:1009C000015CD8B0E6EF04F0E8EF04F0EAEF04F0E1
:1009D000A2EF04F0E2C028F0E3C029F0E4C02AF05E
:1009E000E5C02BF0E8C02CF0E9C02DF0EAC02EF0F5
:1009F000EBC02FF041EC14F0D8A001EF05F003EFAD
:100A000005F0ACEF04F05AC0C9F0C9C0CAF07CBE12
:100A10000CEF05F00EEF05F014EF05F07BC0C2F00F
:100A20007CC0C3F019EF05F0000E0001C36F060E85
:100A3000C26FC2C0CDF0C3C0CEF00001CD4BCE2BF3
:100A4000660ECA19D8A427EF05F029EF05F049EF83
:100A500005F0D0BF30EF05F02EEF05F03CEF05F0CC
:100A6000000EE86F000EE96F800EEA6F3F0EEB6F2D
:100A7000000ED06F000ECF6F670EC919D8B443EFC8
:100A800005F045EF05F049EF05F0CF51CD27D051E6
:100A9000CE23000EE06F000EDF6FE2C0D7F0E3C0A0
:100AA000D8F0E4C0D9F0E5C0DAF0E8C0D1F0E9C090
:100AB000D2F0EAC0D3F0EBC0D4F0DAEF05F0D7C043
:100AC00028F0D8C029F0D9C02AF0DAC02BF0E8C04D
:100AD0002CF0E9C02DF0EAC02EF0EBC02FF0DFECD7
:100AE0000CF028C041F029C042F02AC043F02BC0CE
:100AF00044F01EEC10F041C0DBF042C0DCF043C01B
:100B0000DDF044C0DEF0DBC001F0DCC002F0DDC08F
:100B100003F0DEC004F0BEEC13F001C0CBF002C065
:100B2000CCF0D7C028F0D8C029F0D9C02AF0DAC05C
:100B30002BF0DBC013F0DCC014F0DDC015F0DEC01C
:100B400016F0E8C00FF0E9C010F0EAC011F0EBC0F9
:100B500012F0CAEC0AF00FC02CF010C02DF011C03A
:100B60002EF012C02FF0E9EC19F028C0D7F029C000
:100B7000D8F02AC0D9F02BC0DAF0E8C028F0E9C0DC
:100B800029F0EAC02AF0EBC02BF0000E2C6E000E0C
:100B90002D6E200E2E6E410E2F6EDFEC0CF028C055
:100BA000E8F029C0E9F02AC0EAF02BC0EBF0000120
:100BB000DF4BE02BCD51DF5DE051800A5B6ECE5103
:100BC000800A5B58D8A0E7EF05F0E9EF05F05FEF8A
:100BD00005F0E8C00FF0E9C010F0EAC011F0EBC07A
:100BE00012F0000E136E000E146EA00E156E400E65
:100BF000166ECAEC0AF00FC0DBF010C0DCF011C0BA
:100C0000DDF012C0DEF0D7C028F0D8C029F0D9C07E
:100C10002AF0DAC02BF0DBC02CF0DCC02DF0DDC0F8
:100C20002EF0DEC02FF041EC14F0D8B01AEF06F031
:100C30001CEF06F027EF06F0000E0001DB6F000E40
:100C4000DC6F000EDD6F000EDE6F50EF06F0D7C0D8
:100C500001F0D8C002F0D9C003F0DAC004F0DBC064
:100C600005F0DCC006F0DDC007F0DEC008F0F6ECF1
:100C700017F0D8A03EEF06F040EF06F050EF06F078
:100C80000001CBB146EF06F048EF06F050EF06F05A
:100C9000000EDB6F000EDC6F000EDD6F000EDE6FEE
:100CA000E2C001F0E3C002F0E4C003F0E5C004F0EC
:100CB000DBC005F0DCC006F0DDC007F0DEC008F0E8
:100CC0006AEC08F001C0D7F002C0D8F003C0D9F038
:100CD00004C0DAF0D7C028F0D8C029F0D9C02AF073
:100CE000DAC02BF0000E136E000E146E200E156E7F
:100CF000410E166ED1C00FF0D2C010F0D3C011F06B
:100D0000D4C012F0CAEC0AF00FC02CF010C02DF0C5
:100D100011C02EF012C02FF041EC14F0D8A093EFC8
:100D200006F095EF06F0BEEF06F00001CF4BD02B9A
:100D3000D1C00FF0D2C010F0D3C011F0D4C012F067
:100D4000000E136E000E146E200E156E410E166E00
:100D5000CAEC0AF00FC0D1F010C0D2F011C0D3F02D
:100D600012C0D4F0660E0001CA19D8A4BAEF06F07A
:100D7000BCEF06F0BEEF06F0CD4BCE2BD1C0E8F0B5
:100D8000D2C0E9F0D3C0EAF0D4C0EBF0CFC0C0F0DD
:100D9000D0C0C1F0000E0001C86F000EC56F000E7C
:100DA000C46F000EE06F000EDF6FBCEF07F0D7C01E
:100DB00028F0D8C029F0D9C02AF0DAC02BF0E8C05A
:100DC0002CF0E9C02DF0EAC02EF0EBC02FF0DFECE4
:100DD0000CF028C041F029C042F02AC043F02BC0DB
:100DE00044F01EEC10F041C0DBF042C0DCF043C028
:100DF000DDF044C0DEF0DBC001F0DCC002F0DDC09D
:100E000003F0DEC004F0BEEC13F002BE13EF07F0F7
:100E1000025007E10A0E015CD8B011EF07F013EFA2
:100E200007F023EF07F0DBC001F0DCC002F0DDC00B
:100E300003F0DEC004F0BEEC13F001C0CBF002C042
:100E4000CCF028EF07F0000E0001CC6F090ECB6F3D
:100E50000001C851D8A42FEF07F031EF07F059EF88
:100E600007F0C1BF38EF07F036EF07F059EF07F092
:100E7000000EE625D96E010EE721DA6E2E0EDF6E2A
:100E8000E64BE72BD507D8A0D607010EC86F59EF60
:100E900007F0000EE625D96E010EE721DA6E300E5E
:100EA000DF6EE64BE72BD507D8A0D607C407D8A03E
:100EB000C507C451C511D8A460EF07F062EF07F071
:100EC00049EF07F0000EE625D96E010EE721DA6E34
:100ED000CB51300FDF6EE64BE72BD507D8A0D607F6
:100EE000D7C028F0D8C029F0D9C02AF0DAC02BF03A
:100EF000DBC013F0DCC014F0DDC015F0DEC016F06E
:100F0000E8C00FF0E9C010F0EAC011F0EBC012F039
:100F1000CAEC0AF00FC02CF010C02DF011C02EF05A
:100F200012C02FF0E9EC19F028C0D7F029C0D8F092
:100F30002AC0D9F02BC0DAF0E8C028F0E9C029F0C7
:100F4000EAC02AF0EBC02BF0000E2C6E000E2D6EC6
:100F5000200E2E6E410E2F6EDFEC0CF028C0E8F054
:100F600029C0E9F02AC0EAF02BC0EBF00001C0076D
:100F7000D8A0C107DF4BE02BCD51DF5DE051800AE7
:100F80005B6ECE51800A5B58D8B0C9EF07F0CBEF4B
:100F900007F0D9EF07F0E7BFD7EF07F0E75109E116
:100FA0004B0EE65DD8A0D7EF07F0D9EF07F0D7EFEB
:100FB00006F0000EE06F4F0EDF6F000EDF25D96EDA
:100FC000010EE021DA6EDF6A000E5B6E010E5C6ED0
:100FD000E6515B5EE7515C5ADF515B24016EE051E4
:100FE0005C20026E000E036E010E046EE6C005F07A
:100FF000E7C006F09BEC19F00001E651DF5DE66FFB
:10100000E751E059E76FE151D8A409EF08F00CEF80
:1010100008F0010E0DEF08F0000EDF6FE06B7FA20D
:1010200014EF08F016EF08F044EF08F026EF08F090
:10103000E607D8A0E707000EE625D96E010EE721E6
:10104000DA6E300EDF6ED507D8A0D607D551DF5D3A
:10105000E051800A5B6ED651800A5B58D8B033EFFE
:1010600008F035EF08F044EF08F0E651DF5DE0519D
:10107000800A5B6EE751800A5B58D8A042EF08F007
:1010800044EF08F018EF08F0E151D8B44AEF08F047
:101090004CEF08F057EF08F0E607D8A0E707000E7E
:1010A000E625D96E010EE721DA6EE1C0DFFFDF51E0
:1010B000D55FE051D65B55C00FF0000EE625106EEF
:1010C000010EE721116ED5C012F0D6C013F03DEC31
:1010D00019F012000450800B0D6E045004240F6EA2
:1010E00003AE75EF08F077EF08F078EF08F00F80A7
:1010F0000F50D8B47EEF08F080EF08F095EF08F0BD
:101100000F28D8A486EF08F088EF08F090EF08F0D9
:10111000000E016E000E026E000E036E000E046ED5
:10112000038E000E046E9DEF08F0000E016E000E9F
:10113000026E000E036E000E046E0850800B0E6EE1
:101140000D500E18D8B4A7EF08F0A9EF08F0AAEFD9
:1011500008F00D8C085008240E6E07AEB2EF08F0B0
:10116000B4EF08F0B5EF08F00E800E50D8B4BBEF26
:1011700008F0BDEF08F0D2EF08F00E28D8A4C3EFB6
:1011800008F0C5EF08F0CDEF08F0000E056E000E78
:10119000066E000E076E000E086E078E000E086EBB
:1011A000DAEF08F0000E056E000E066E000E076EF8
:1011B000000E086E0F500E5CD8B0E1EF08F0E3EFC0
:1011C00008F00AEF09F00DACE8EF08F0EAEF08F0DC
:1011D000ECEF08F0800E0D1A0FC010F00EC00FF0EB
:1011E00010C00EF001C010F005C001F010C005F0F5
:1011F00002C010F006C002F010C006F003C010F0EC
:1012000007C003F010C007F004C010F008C004F0DD
:1012100010C008F0000E106E0F500EC009F00A6AE0
:10122000095E000E0A5A0ABE1FEF09F00A5009E1D2
:101230001A0E095CD8A01FEF09F021EF09F058EF52
:1012400009F00150021003100410D8A42AEF09F08D
:101250002DEF09F0010E2EEF09F0000E106E000EBA
:10126000016E000E026E000E036E000E046E0EC0C4
:101270000FF061EF09F010A040EF09F042EF09F024
:1012800048EF09F0D89010300109106E4AEF09F0CC
:10129000D890103201A04FEF09F051EF09F052EF52
:1012A00009F0108E043404320332023201320F2A64
:1012B0000E500F5CD8A05FEF09F061EF09F03BEF33
:1012C00009F00DBC66EF09F068EF09F0A8EF09F02E
:1012D0000F50D8A46EEF09F070EF09F07AEF09F023
:1012E000000E016E000E026E000E036E000E046E04
:1012F000C9EF0AF0055001260650022207500322CA
:101300000850042204A087EF09F089EF09F035EFB7
:101310000AF010A08EEF09F090EF09F096EF09F0B7
:10132000D89010300109106E98EF09F0D890103263
:1013300001A09DEF09F09FEF09F0A0EF09F0108EDA
:10134000043404320332023201320F2A35EF0AF03C
:101350000550015C06500258075003580450800A9B
:10136000096E0850800A0958D8B0B9EF09F0BBEFF0
:1013700009F0E6EF09F00150055C096E02500658CD
:101380000A6E035007580B6E045008580C6EFF0E7F
:101390000924016EFF0E0A20026EFF0E0B20036E61
:1013A000FF0E0C20046E800E0D1A106C1050D8A485
:1013B000DCEF09F0DEEF09F0EEEF09F0010E012697
:1013C000000E022203220422EEEF09F00550015E16
:1013D0000650025A0750035A0850045A015002108E
:1013E00003100410D8A4F7EF09F0F9EF09F02EEF7D
:1013F0000AF01050D8A4FFEF09F001EF0AF02EEF29
:101400000AF0000E016E000E026E000E036E000E5A
:10141000046EC9EF0AF0D89001360236033604365E
:1014200010AE15EF0AF017EF0AF018EF0AF001807E
:1014300010A01DEF0AF01FEF0AF023EF0AF0D8808A
:10144000103625EF0AF0D89010360F50D8B42BEF95
:101450000AF02DEF0AF02EEF0AF00F0603AE33EF7D
:101460000AF035EF0AF00BEF0AF0000E0E6E10AE28
:101470003CEF0AF03EEF0AF056EF0AF010C009F018
:101480007F0E0916D8B447EF0AF049EF0AF04DEF86
:101490000AF0010E0E6E56EF0AF001A052EF0AF0AC
:1014A00054EF0AF056EF0AF049EF0AF00E50D8B4A4
:1014B0005CEF0AF05EEF0AF089EF0AF0010E0126F8
:1014C000000E02220322042204A069EF0AF06BEF4F
:1014D0000AF089EF0AF001C009F002C00AF003C067
:1014E0000BF004C00CF00C340C320B320A3209320F
:1014F00009C001F00AC002F00BC003F00CC004F0F8
:101500000F28D8B486EF0AF088EF0AF089EF0AF0C6
:101510000F2A0F28D8B48FEF0AF091EF0AF099EF55
:101520000AF00F50D8A497EF0AF099EF0AF0ABEF4A
:101530000AF0000E016E000E026E000E036E000E29
:10154000046E0F50D8A4A7EF0AF0A9EF0AF0ABEF92
:101550000AF0000E0D6E0FA0B0EF0AF0B2EF0AF025
:10156000B5EF0AF0038EB6EF0AF0039ED8900F3065
:10157000046E0DAEBEEF0AF0C0EF0AF0C1EF0AF044
:10158000048E01C001F002C002F003C003F004C0E9
:1015900004F012001250800B1B6E12501224216EA8
:1015A00011AED5EF0AF0D7EF0AF0D8EF0AF021809C
:1015B0002150D8B4DEEF0AF0E0EF0AF0F3EF0AF0C2
:1015C0002128D8A4E6EF0AF0E8EF0AF0F0EF0AF0DD
:1015D000000E0F6E000E106E000E116E000E126ED9
:1015E000118EFBEF0AF0000E0F6E000E106E000E53
:1015F000116E000E126E1650800B1B1A1650162418
:10160000206E15AE06EF0BF008EF0BF009EF0BF0B4
:1016100020802050D8B40FEF0BF011EF0BF024EF27
:101620000BF02028D8A417EF0BF019EF0BF021EFE7
:101630000BF0000E136E000E146E000E156E000EF1
:10164000166E158E2CEF0BF0000E136E000E146E3E
:10165000000E156E000E166E2050D8B432EF0BF04F
:1016600034EF0BF03CEF0BF02150D8A43AEF0BF025
:101670003CEF0BF046EF0BF0000E0F6E000E106EFD
:10168000000E116E000E126EDEEF0CF015500F0200
:10169000F3CF26F0F4CF27F026501C6E1D6A1E6A89
:1016A0001F6A2750226E236A246A256A145010028A
:1016B000F3CF26F0F4CF27F026501C26000E1D2273
:1016C0001E221F2227502226000E232224222522FA
:1016D00013501102F3CF26F0F4CF27F026501C262A
:1016E000000E1D221E221F2227502226000E23221A
:1016F000242225221EC01FF01DC01EF01CC01DF09C
:101700001C6A13501002F3CF26F0F4CF27F02650B6
:101710001C2627501D22000E1E22000E1F221450D0
:101720000F02F3CF26F0F4CF27F026501C262750C7
:101730001D22000E1E22000E1F221EC01FF01DC003
:101740001EF01CC01DF01C6A13500F02F3CF26F0D0
:10175000F4CF27F026501C2627501D22000E1E22F3
:10176000000E1F2215501002F3CF26F0F4CF27F001
:101770002650222627502322000E2422000E252246
:1017800014501102F3CF26F0F4CF27F02650222672
:1017900027502322000E2422000E2522155011026C
:1017A000F3CF26F0F4CF27F02650176E2750186E8F
:1017B000196A1A6A19C01AF018C019F017C018F07F
:1017C000176A1750222618502322195024221A5023
:1017D00025221CC017F01DC018F01EC019F01FC034
:1017E0001AF0190EF9EF0BF0D8901A32193218329C
:1017F0001732E82EF4EF0BF0175022261850232250
:10180000195024221A5025221EC01FF01DC01EF0A0
:101810001CC01DF01C6A205021C017F0186A172642
:10182000000E1822820E1724266EFF0E1820276E37
:101830002FEF0CF0D89022362336243625361FAEF3
:1018400024EF0CF026EF0CF027EF0CF02280D8905C
:101850001C361D361E361F362606D8A0270624AE97
:1018600034EF0CF036EF0CF01AEF0CF0000E206E97
:101870001FAE3DEF0CF03FEF0CF063EF0CF0FF0EEE
:101880001C14176EFF0E1D14186EFF0E1E14196E19
:101890007F0E1F141A6E1750181019101A10D8B492
:1018A00054EF0CF056EF0CF05AEF0CF0010E206ED6
:1018B00063EF0CF022A05FEF0CF061EF0CF063EF30
:1018C0000CF056EF0CF02050D8B469EF0CF06BEF31
:1018D0000CF08FEF0CF0010E2226000E23222422A2
:1018E000252225A076EF0CF078EF0CF08FEF0CF0AE
:1018F00022C017F023C018F024C019F025C01AF038
:101900001A341A3219321832173217C022F018C09E
:1019100023F019C024F01AC025F0264A272A27BE32
:101920009AEF0CF0275008E12628D8A09AEF0CF087
:101930009CEF0CF0A6EF0CF0000E226E000E236E52
:10194000800E246E7F0E256ED4EF0CF027BEB3EF11
:101950000CF0275006E12604D8B0B1EF0CF0B3EF3D
:101960000CF0BFEF0CF0000E226E000E236E000E86
:10197000246E000E256E000E1B6ED4EF0CF026C0F8
:1019800021F0FF0E2216FF0E23167F0E2416000EE6
:10199000251621A0CEEF0CF0D0EF0CF0D1EF0CF01B
:1019A000248ED8902130256E1B50251222C00FF0B6
:1019B00023C010F024C011F025C012F012002B50EB
:1019C000800B386E2B502B243F6E2AAEEAEF0CF0C2
:1019D000ECEF0CF0EDEF0CF03F803F50D8B4F3EF9C
:1019E0000CF0F5EF0CF00AEF0DF03F28D8A4FBEF58
:1019F0000CF0FDEF0CF005EF0DF0000E286E000E60
:101A0000296E000E2A6E000E2B6E2A8E000E2B6E93
:101A100012EF0DF0000E286E000E296E000E2A6ED9
:101A2000000E2B6E2F50800B381A2F502F24406E33
:101A30002EAE1DEF0DF01FEF0DF020EF0DF04080EA
:101A40004050D8B426EF0DF028EF0DF03DEF0DF02B
:101A50004028D8A42EEF0DF030EF0DF038EF0DF048
:101A6000000E2C6E000E2D6E000E2E6E000E2F6ED0
:101A70002E8E000E2F6E45EF0DF0000E2C6E000E18
:101A80002D6E000E2E6E000E2F6E2C502D102E106F
:101A90002F10D8A44EEF0DF050EF0DF068EF0DF0C1
:101AA000000E286E000E296E000E2A6E000E2B6EA0
:101AB000800E2A127F0E2B1238502B1228C028F0CD
:101AC00029C029F02AC02AF02BC02BF0ABEF0EF072
:101AD0003F50D8A46EEF0DF070EF0DF07AEF0DF0DF
:101AE000000E286E000E296E000E2A6E000E2B6E60
:101AF000ABEF0EF040503FC030F0316A305E000E68
:101B0000315A7F0E3024396E000E31203A6E28C0D3
:101B100034F029C035F02AC036F02BC037F0000E63
:101B2000286E000E296E000E2A6E000E2B6E000E1F
:101B30003B6E000E3C6E000E3D6E000E3E6E000EC3
:101B4000406EDBEF0DF04050D8B4A9EF0DF0ABEFD5
:101B50000DF0C2EF0DF0D8903436353636363736C4
:101B6000D890283629362A362B363EAEBAEF0DF0FD
:101B7000BCEF0DF0BDEF0DF02880D8903B363C3621
:101B80003D363E362C50345C2D5035582E5036584C
:101B90002F503758D8A0CFEF0DF0D1EF0DF0DAEF7E
:101BA0000DF03E8C2C50345E2D50355A2E50365A46
:101BB0002F50375A402A190E4064E1EF0DF0E3EF41
:101BC0000DF0A3EF0DF03450351036103710D8B4A7
:101BD000ECEF0DF0EEEF0DF006EF0EF03B8006EFB0
:101BE0000EF0D890283629362A362B363EAEFBEF3B
:101BF0000DF0FDEF0DF0FEEF0DF02880D8903B3694
:101C00003C363D363E363906D8A03A062AAE0BEFB2
:101C10000EF00DEF0EF0F1EF0DF0000E406E3EAE47
:101C200014EF0EF016EF0EF03AEF0EF0FF0E3B142D
:101C3000306EFF0E3C14316EFF0E3D14326E7F0E7F
:101C40003E14336E3050311032103310D8B42BEFB5
:101C50000EF02DEF0EF031EF0EF0010E406E3AEF68
:101C60000EF028A036EF0EF038EF0EF03AEF0EF03F
:101C70002DEF0EF04050D8B440EF0EF042EF0EF0D2
:101C800066EF0EF0010E2826000E29222A222B22B2
:101C90002BA04DEF0EF04FEF0EF066EF0EF028C0C8
:101CA00030F029C031F02AC032F02BC033F0333489
:101CB000333232323132303230C028F031C029F084
:101CC00032C02AF033C02BF0394A3A2A3ABE71EFBB
:101CD0000EF03A5008E13928D8A071EF0EF073EFFA
:101CE0000EF07EEF0EF0000E3A6E3968000E286E90
:101CF000000E296E000E2A6E000E2B6E3ABE8BEF80
:101D00000EF03A5006E13904D8B089EF0EF08BEFAF
:101D10000EF099EF0EF0000E3A6E000E396E000EC6
:101D2000286E000E296E000E2A6E000E2B6E000E1D
:101D3000386E39C03FF03FA0A0EF0EF0A2EF0EF0DA
:101D4000A5EF0EF02A8EA6EF0EF02A9ED8903F3017
:101D50002B6E5CEF0DF012005E50D96EDA6ADFCFA9
:101D6000F6FF060EF76E0800F550250AD8A4BBEF63
:101D70000EF0BDEF0EF00CEF10F05E50D96EDA6A87
:101D8000DF2A000E0001916F000E906F90C07FF06F
:101D90007B687C68000E616EE8EF0EF07F825E501B
:101DA000D96EDA6ADF2AE8EF0EF0010E616EE8EF15
:101DB0000EF05E50D96EDA6ADFCFF6FF060EF76ED0
:101DC0000800F550300AD8B4CEEF0EF0D5EF0EF083
:101DD0006150D8B4EEEF0EF0F0EF0EF0D9EF0EF048
:101DE0005E50D96EDA6ADFCFF6FF060EF76E080096
:101DF000F5502E0AD8A4FFEF0EF001EF0FF00FEF11
:101E00000FF05E50D96EDA6ADF2A5EC007F05FC05D
:101E100008F04BEC18F007C07BF008C07CF05E5077
:101E2000D96EDA6ADFCFF6FF060EF76E0800F550BE
:101E3000630AD8A41EEF0FF020EF0FF037EF0FF07A
:101E40005E50D96EDA6ADF2A5F50D96EDA6ADF50E7
:101E5000DF2ADF2AD96EDA6ADF50666E66C001F0CB
:101E6000026A5DC003F0E7EC16F01DEF10F05E5063
:101E7000D96EDA6ADF50676E67C0F6FF060EF76E3E
:101E80000800F550640AD8B448EF0FF04AEF0FF09D
:101E900058EF0FF067C0F6FF060EF76E0800F5501A
:101EA000690AD8A456EF0FF058EF0FF073EF0FF058
:101EB0005F50D96EDA6A020EDF26DF5CD96EDA6A0D
:101EC000DECF62F0DECF63F05E50D96EDA6A67284B
:101ED000DF6E5DC017F062C018F063C019F0E6EC69
:101EE00012F01DEF10F05E50D96EDA6ADF50676EA7
:101EF00067C0F6FF060EF76E0800F5CF66F08CEFB0
:101F00000FF0672A9BEF0FF06C0E666E9BEF0FF0E1
:101F1000000E666E9BEF0FF066504C0AD8B481EF4E
:101F20000FF02A0AD8B484EF0FF00A0AD8B481EF70
:101F30000FF088EF0FF067C0F6FF060EF76E08008F
:101F4000F550660AD8A4A7EF0FF0A9EF0FF006EF3F
:101F500010F0D3EF0FF05F50D96EDA6ADFCF60F088
:101F6000040EDF266050D96EDA6ADECF62F0DECF73
:101F700063F0DECF64F0DECF65F0DEEF0FF05F5090
:101F8000D96EDA6ADFCF60F0040EDF266050D96EBA
:101F9000DA6ADECF62F0DECF63F0DECF64F0DECF50
:101FA00065F0DEEF0FF066504C0AD8B4BFEF0FF0CB
:101FB000200AD8B4ABEF0FF0DEEF0FF05E50D96E11
:101FC000DA6A6728DF6EFAEF0FF05DC055F062C085
:101FD00056F063C057F064C058F065C059F067C050
:101FE000F6FF060EF76E0800F5CF5AF040EC03F04E
:101FF0001DEF10F067C0F6FF060EF76E0800F550F3
:10200000660AD8B4E5EF0FF006EF10F05E50D96E17
:10201000DA6ADF2A1DEF10F05E50D96EDA6ADFCF80
:10202000F6FF060EF76E0800F550016E026A5DC0FD
:1020300003F0E7EC16F006EF10F0120080C051F04C
:1020400081C052F082C053F083C054F041C051F0BF
:1020500042C052F043C053F044C054F0810E456E6C
:10206000FF0E466E51C047F052C048F053C049F0D1
:1020700054C04AF0180E42EF10F0D8904A3249325C
:1020800048324732E82E3DEF10F0475045244F6E5E
:10209000000E4620506E50BE57EF10F0505009E130
:1020A000170E4F5CD8A057EF10F059EF10F063EF08
:1020B00010F041C041F042C042F043C043F044C080
:1020C00044F026EF11F050BE68EF10F06AEF10F008
:1020D000DAEF10F04FC045F0FF0E466EFF0E476E70
:1020E0007F0E486E000E496E456679EF10F081EF65
:1020F00010F049344932483247324632452E74EFA7
:1021000010F046C04BF047C04CF048C04DF049C0FD
:102110004EF04B505114456E4C505214466E4D507B
:102120005314476E4E505414486E45504610471095
:102130004810D8A49EEF10F0A0EF10F0A2EF10F01E
:1021400059EF10F051C045F052C046F053C047F06F
:1021500054C048F0200EB2EF10F0D8904832473209
:1021600046324532E82EADEF10F04550461047108C
:102170004810D8B4BEEF10F0C0EF10F0C8EF10F068
:102180004B5051264C5052224D5053224E50542207
:102190004B1C456E4C1C466E4D1C476E4E1C486ECB
:1021A0004550511646505216475053164850541633
:1021B0001EEF11F051C045F052C046F053C047F039
:1021C00054C048F0200EEAEF10F0D8904832473261
:1021D00046324532E82EE5EF10F0455046104710E4
:1021E0004810D8A4F6EF10F0F8EF10F002EF11F05D
:1021F000000E516E000E526E000E536E000E546EA5
:102200001EEF11F0D8905134456E5234466E53345F
:10221000476E5434486E4550461047104810D8B4A5
:1022200014EF11F016EF11F01EEF11F0000E516EC9
:10223000000E526E800E536EBF0E546E51C041F0B0
:1022400052C042F053C043F054C044F01200000E9C
:10225000286E000E296ED20E2A6E420E2B6E77C0AB
:102260002CF078C02DF079C02EF07AC02FF041EC20
:1022700014F0D8A03EEF11F040EF11F04FEF11F045
:10228000000E0001976F000E966F000E956F000E06
:10229000946F000E936F010E926FF9EF11F0000E24
:1022A000286E000E296ED20E2A6E420E2B6E77C05B
:1022B0002CF078C02DF079C02EF07AC02FF041ECD0
:1022C00014F0D8B066EF11F068EF11F090EF11F054
:1022D000000E286E000E296E520E2A6E430E2B6ED3
:1022E00077C02CF078C02DF079C02EF07AC02FF096
:1022F00041EC14F0D8A07FEF11F081EF11F090EFD6
:1023000011F0000E0001976F010E966F000E956F91
:10231000000E946F000E936F010E926FF9EF11F0A3
:10232000000E286E000E296E520E2A6E430E2B6E82
:1023300077C02CF078C02DF079C02EF07AC02FF045
:1023400041EC14F0D8B0A7EF11F0A9EF11F0D1EFE4
:1023500011F0000E286E800E296E9D0E2A6E430E1F
:102360002B6E77C02CF078C02DF079C02EF07AC09B
:102370002FF041EC14F0D8A0C0EF11F0C2EF11F033
:10238000D1EF11F0000E0001976F010E966F000E55
:10239000956F010E946F000E936F010E926FF9EF1F
:1023A00011F0000E286E800E296E9D0E2A6E430ECF
:1023B0002B6E77C02CF078C02DF079C02EF07AC04B
:1023C0002FF041EC14F0D8B0E8EF11F0EAEF11F083
:1023D000F9EF11F0000E0001976F010E966F000EDD
:1023E000956F010E946F000E936F000E926FF9EFD0
:1023F00011F0000196B102D0829001D082800001DC
:1024000094B102D0829201D08282000192B102D0B6
:10241000829401D082841200096E0950D8B413EF5F
:1024200012F015EF12F037EF12F004BE1CEF12F0AD
:102430001AEF12F037EF12F001C005F002C006F0FB
:1024400003C007F004C008F0051E061E071E081E84
:10245000052A000E06220722082205C00BF006C03E
:102460000CF007C00DF008C00EF03FEF12F001C0F5
:102470000BF002C00CF003C00DF004C00EF00150D0
:10248000021003100410D8A448EF12F04AEF12F023
:1024900054EF12F0000E016E000E026E000E036E7D
:1024A000000E046EE5EF12F0960E0A6E5EEF12F06B
:1024B0000A2AD8900E320D320C320B32000E0B1459
:1024C000056E000E0C14066E000E0D14076EFE0E47
:1024D0000E14086E0550061007100810D8A473EFEC
:1024E00012F075EF12F058EF12F083EF12F00A2A93
:1024F000010E0B26000E0C220D220E22D8900E3259
:102500000D320C320B32000E0B14056E000E0C1443
:10251000066E000E0D14076EFF0E0E14086E0550A9
:10252000061007100810D8A498EF12F09AEF12F0D6
:1025300077EF12F0A2EF12F00A06D8900B360C36A5
:102540000D360E360DBEA7EF12F0A9EF12F0B1EF67
:1025500012F0020E0A60AFEF12F0B1EF12F09CEF32
:1025600012F00AB0B6EF12F0B8EF12F0B9EF12F0B5
:102570000D9ED8900A320AC005F0066A076A086AFA
:1025800005C008F0076A066A056A05500B12065076
:102590000C1207500D1208500E120950D8B4D3EF88
:1025A00012F0D5EF12F0DDEF12F004BEDCEF12F006
:1025B000DAEF12F0DDEF12F00E8E0BC001F00CC05E
:1025C00002F00DC003F00EC004F0120019BEEBEFD4
:1025D00012F0EEEF12F0010EEFEF12F0000E206E8F
:1025E0007CBEF5EF12F0F7EF12F0F8EF12F07F92E9
:1025F0007CBEFFEF12F0FDEF12F005EF13F0000EBE
:102600001D6E010E1C6E09EF13F07BC01CF07CC028
:102610001DF090C01EF091C01FF02050D8B413EFF1
:1026200013F015EF13F02CEF13F01E06D8A01F06C1
:102630002050D8A41EEF13F020EF13F026EF13F074
:10264000000E1B6E2B0E1A6E2AEF13F0000E1B6E7F
:102650002D0E1A6E1AC020F0000E226E4F0E216E43
:10266000000E01014F6F65EF13F02106D8A022067E
:10267000000E2124D96E010E2220DA6E18C001F05E
:1026800019C002F0000E046E0A0E036E9EEC17F0E5
:1026900001C007F002C008F0A5EC1AF00750300F97
:1026A000DF6E1C06D8A01D061E06D8A01F0618C087
:1026B00001F019C002F0000E046E0A0E036E85ECE4
:1026C00016F001C018F002C019F022BE70EF13F02E
:1026D000225008E12104D8A070EF13F072EF13F03C
:1026E0009CEF13F018501910D8A479EF13F07BEF7A
:1026F00013F035EF13F01DBE88EF13F01D5006E107
:102700001C04D8B086EF13F088EF13F035EF13F008
:102710001FBE93EF13F01F5008E11E04D8A093EFE3
:1027200013F095EF13F09CEF13F07FB29AEF13F0D4
:102730009CEF13F035EF13F02050D8B4A2EF13F054
:10274000A4EF13F0AFEF13F02106D8A02206000E7D
:102750002124D96E010E2220DA6E20C0DFFF17C0BF
:102760000FF0000E2124106E010E2220116E1EC0EB
:1027700012F01FC013F03DEC19F0120003340434C2
:102780000A6E0A50D8A4C7EF13F0C9EF13F0D3EFC5
:1027900013F0000E016E000E026E000E036E000EAE
:1027A000046E40EF14F001C005F002C006F003C053
:1027B00007F004C008F0200EE3EF13F0D8900832C1
:1027C000073206320532E82EDEEF13F00550096EAF
:1027D000038EFF0E0116FF0E0216FF0E0316000EEB
:1027E0000416960E0A5E0ABEFAEF13F0F8EF13F025
:1027F00010EF14F00A50800A970FD8B002EF14F0CF
:1028000004EF14F006EF14F0C9EF13F0D89004327F
:102810000332023201320A3E06EF14F028EF14F0C0
:102820001F0E0A6416EF14F018EF14F020EF14F0E6
:10283000C9EF13F0D89001360236033604360A0683
:102840000A50D8A426EF14F028EF14F01AEF14F071
:102850000950D8B42EEF14F030EF14F038EF14F024
:10286000041E031E021E016C000E0222032204221B
:1028700001C001F002C002F003C003F004C004F084
:102880001200000E2814306E000E2914316E800ED6
:102890002A14326E7F0E2B14336E305031103210EA
:1028A0003310D8A456EF14F058EF14F060EF14F082
:1028B000000E286E000E296E000E2A6E000E2B6E82
:1028C000000E2C14306E000E2D14316E800E2E145E
:1028D000326E7F0E2F14336E3050311032103310A1
:1028E000D8A475EF14F077EF14F07FEF14F0000E1A
:1028F0002C6E000E2D6E000E2E6E000E2F6E2BAE67
:1029000084EF14F086EF14F08FEF14F0286C291E7A
:10291000D8B0292A2A1ED8B02A2A800E2B562FAECC
:1029200094EF14F096EF14F09FEF14F02C6C2D1E22
:10293000D8B02D2A2E1ED8B02E2A800E2F56000E6B
:10294000281A000E291A000E2A1A800E2B1A000EC1
:102950002C1A000E2D1A000E2E1A800E2F1A2C5033
:10296000285C2D5029582E502A582F502B58D8B05B
:10297000BCEF14F0BEEF14F0C1EF14F0D890C2EF2A
:1029800014F0D880120084C00BF085C00CF086C013
:102990000DF087C00EF001C00BF002C00CF003C0B8
:1029A0000DF004C00EF00BC005F00CC006F00DC019
:1029B00007F00EC008F0180EE3EF14F0D8900832BC
:1029C000073206320532E82EDEEF14F00550096EAC
:1029D0000A6A09500A10D8A4F0EF14F0F2EF14F0CC
:1029E00012EF15F0D8900B34056E0C34066E0D34D2
:1029F000076E0E34086E0550061007100810D8A494
:102A000004EF15F006EF15F00CEF15F0000E026E56
:102A1000020E016E41EF15F0000E026E030E016E04
:102A200041EF15F009280A10D8A419EF15F01BEF93
:102A300015F03DEF15F00BC005F00CC006F00DC011
:102A400007F00EC008F0090ED89005360636073696
:102A50000836E82E24EF15F0055006100710081070
:102A6000D8B435EF15F038EF15F0010E39EF15F049
:102A7000000E016E026A41EF15F0000E026E040EA8
:102A8000016E1200046E100E016E045019EC1BF062
:102A9000036E033A83500318EF0B0318836E200E66
:102AA000016E045019EC1BF0036E033A0346835089
:102AB0000318DF0B0318836E400E016E045019ECEF
:102AC0001BF0036E033A0346034683500318BF0B03
:102AD0000318836E800E016E045019EC1BF0036E18
:102AE00003320332835003187F0B0318836E8484F0
:102AF0008494420EE82EFED700D0010E016E0450E1
:102B000019EC1BF0036E033A83500318EF0B031804
:102B1000836E020E016E045019EC1BF0036E033A33
:102B2000034683500318DF0B0318836E040E016EF7
:102B3000045019EC1BF0036E033A0346034683501E
:102B40000318BF0B0318836E080E016E045019ECB6
:102B50001BF0036E03320332835003187F0B0318FC
:102B6000836E8484849412007DC001F07EC002F0E4
:102B7000036A046A000E0CEC12F001C00FF002C0F0
:102B800010F003C011F004C012F00A0E136E280EEC
:102B9000146EA00E156E3B0E166ECAEC0AF00FC036
:102BA0008CF010C08DF011C08EF012C08FF08CC070
:102BB00028F08DC029F08EC02AF08FC02BF0310E86
:102BC0002C6E0C0E2D6E430E2E6E3C0E2F6EDFEC17
:102BD0000CF028C077F029C078F02AC079F02BC01B
:102BE0007AF0000E136E000E146EC80E156E420EB3
:102BF000166E77C00FF078C010F079C011F07AC06F
:102C000012F0CAEC0AF00FC028F010C029F011C071
:102C10002AF012C02BF0000E2C6E000E2D6ED20E7C
:102C20002E6E430E2F6EDFEC0CF028C088F029C00A
:102C300089F02AC08AF02BC08BF01200B80E000178
:102C4000EF6FF06B7C0EF16F96C0F2F097C0F3F06F
:102C50000CEC1AF0B00E0001EF6FF06B7C0EF16F10
:102C600094C0F2F095C0F3F00CEC1AF0A80E00013D
:102C7000EF6FF06B7C0EF16F92C0F2F093C0F3F047
:102C80000CEC1AF0EFEC1AF0340E766EF20EE82E21
:102C9000FED7762EFCD7010E076E310E086E085057
:102CA000D8A4060E096E010E9EEC18F0070E076EF2
:102CB000B80E086E096A010E9EEC18F0090E076E38
:102CC000420E086E0850D8A4060E096E010E9EEC46
:102CD00018F00F0E076EB00E086E096A010E9EEC1A
:102CE00018F0010E076E530E086E0850D8A4060E99
:102CF000096E020E9EEC18F0060E076EA80E086E06
:102D0000096A020E9EEC18F01200000E066E04BE58
:102D10008EEF16F08CEF16F094EF16F0036C041E95
:102D2000D8B0042A010E066E02BE9BEF16F099EF92
:102D300016F0A1EF16F0016C021ED8B0022A010EA7
:102D4000061A000E086E000E076E03500410D8B469
:102D5000ACEF16F0AEEF16F0D6EF16F0010E056EE2
:102D6000B6EF16F0D89003360436052A04AEBBEF52
:102D700016F0BDEF16F0B2EF16F0D8900736083611
:102D80000350015C04500258D8A0C9EF16F0CBEFF5
:102D900016F0D0EF16F00350015E0450025A07807F
:102DA000D89004320332052EBDEF16F00650D8B489
:102DB000DCEF16F0DEEF16F0E2EF16F0076C081EFF
:102DC000D8B0082A07C001F008C002F01200035072
:102DD000D8B4EDEF16F0EFEF16F0F7EF16F0035062
:102DE000D8A4F5EF16F0F7EF16F0FCEF16F001504F
:102DF0004DEC1BF043EF17F00350D96EDA6A0A0E60
:102E0000D926DE50DE10D8B408EF17F00AEF17F01D
:102E100023EF17F00350D96EDA6A0A0ED926035051
:102E2000E16EE26A030EE126DE50E65CE650800ABF
:102E3000086EDE50800A0858D8B021EF17F023EF53
:102E400017F043EF17F00350D96EDA6A030ED92654
:102E5000DECF04F0DDCF05F00350D96EDA6ADECFA5
:102E600006F0DDCF07F004500624D96E0550072088
:102E7000DA6E01C0DFFF0350D96EDA6A030ED9267D
:102E8000DE2A000EDD221200980E0001EF6FF06BBB
:102E9000630EF16F77C0F2F078C0F3F079C0F4F010
:102EA0007AC0F5F0000EF76FDF0EF66F0CEC1AF03B
:102EB000500E0001EF6F010EF06F6C0EF16F88C0C5
:102EC000F2F089C0F3F08AC0F4F08BC0F5F0000E88
:102ED000F76F250EF66F0CEC1AF0EFEC1AF0340ECB
:102EE000766EF20EE82EFED7762EFCD7010E076E18
:102EF000010E086E0850D8A4060E096E010E9EEC55
:102F000018F00A0E076E980E086E096A010E9EEC04
:102F100018F0010E076E190E086E0850D8A4060EA0
:102F2000096E020E9EEC18F00A0E076E500E086E27
:102F3000010E096E020E9EEC18F01200000E066ED5
:102F400002BEA7EF17F0A5EF17F0ADEF17F0016C79
:102F5000021ED8B0022A010E066E04BEB4EF17F0AE
:102F6000B2EF17F0B8EF17F0036C041ED8B0042AC4
:102F700003500410D8B4BFEF17F0C1EF17F0E5EF1E
:102F800017F0010E056EC9EF17F0D890033604361E
:102F9000052A04AECEEF17F0D0EF17F0C5EF17F00B
:102FA0000350015C04500258D8A0D9EF17F0DBEFB2
:102FB00017F0DFEF17F00350015E0450025AD8906B
:102FC00004320332052ED0EF17F00650D8B4EBEFE1
:102FD00017F0EDEF17F0F1EF17F0016C021ED8B00B
:102FE000022A01C001F002C002F01200000E01141A
:102FF000096E000E02140A6E800E03140B6E7F0E13
:1030000004140C6E09500A100B100C10D8A40BEF0E
:1030100018F00DEF18F015EF18F0000E016E000E0D
:10302000026E000E036E000E046E000E0514096E93
:10303000000E06140A6E800E07140B6E7F0E081425
:103040000C6E09500A100B100C10D8A42AEF18F0BF
:103050002CEF18F034EF18F0000E056E000E066E1F
:10306000000E076E000E086E055001180FE10650A5
:1030700002180CE10750031809E108500418D8B4ED
:1030800044EF18F046EF18F049EF18F0D8904AEFE7
:1030900018F0D8801200000E0B6E000E0A6E07505A
:1030A000D96EDA6ADFCFF6FF060EF76E0800F5502C
:1030B0002A0AD8A45EEF18F060EF18F086EF18F037
:1030C0000750D96EDA6ADF2A0850D96EDA6A020E22
:1030D000DF26DF5CD96EDA6ADECF0AF0DECF0BF0D6
:1030E00099EF18F00AC001F00BC002F0000E046E58
:1030F0000A0E036E06EC1BF0095001240A6E000E46
:1031000002200B6E0750D96EDA6ADF2A0750D96E9B
:10311000DA6ADFCFF6FF060EF76E0800F550D00F23
:10312000096E090E096497EF18F099EF18F072EF25
:1031300018F00AC007F00BC008F012000B6E0B0469
:10314000D8A4A5EF18F0A7EF18F0ACEF18F00750CF
:103150007F0F0A6EB8EF18F0020E0B18D8A4B3EF69
:1031600018F0B5EF18F0B8EF18F00750BF0F0A6E5F
:103170000AC005F0000E29EC1BF0D5EF18F008C0CE
:10318000F6FF09C0F7FFF86A050EF76403D00800E0
:10319000F55005D0F6CFE1FFF7CFE2FFE750056E1F
:1031A000010E29EC1BF0084A092A08C0F6FF09C0E5
:1031B000F7FFF86A050EF76403D00800F55005D054
:1031C000F6CFE1FFF7CFE2FFE7500009D8A4EBEF1D
:1031D00018F0EDEF18F0BFEF18F01200000E956E2A
:1031E000969496929690000E836E84908492849426
:1031F000270E056EF50EE82EFED7052EFCD7000033
:10320000000E066E300E42EC15F00D0E056EFC0E33
:10321000E82EFED7052EFCD7062A020E066413EF11
:1032200019F015EF19F002EF19F0020E42EC15F04B
:103230001A0EE82EFED700D0280E42EC15F01A0E1A
:10324000E82EFED700D0010E42EC15F0060E056EFA
:10325000300EE82EFED7052EFCD700D00C0E42EC27
:1032600015F01A0EE82EFED700D0060E42EC15F02F
:103270001A0EE82EFED700D0120013BE44EF19F04C
:1032800042EF19F048EF19F0000E136E000E126EA7
:10329000000E166E000E156E58EF19F0000E026E3D
:1032A000200E016E0FC003F0E7EC16F0154A162A47
:1032B0001250155C1650800A146E1350800A145870
:1032C000D8A065EF19F067EF19F04EEF19F010C0B4
:1032D00009F011C00AF00FC00BF04CEC1AF012000C
:1032E00004BE75EF19F077EF19F081EF19F001C006
:1032F00001F002C002F003C003F004C004F09AEF32
:1033000019F001C005F002C006F003C007F004C0C8
:1033100008F0051E061E071E081E052A000E0622BE
:103320000722082205C001F006C002F007C003F022
:1033300008C004F0120003C00AF004C00BF001C082
:1033400008F002C009F0B5EF19F00AC0D9FF0BC0B0
:10335000DAFFDF50076E0A4A0B2A08C0D9FF09C0FE
:10336000DAFF07C0DFFF084A092A0506D8A00606CB
:10337000052806E10628D8A4C0EF19F0C2EF19F01D
:10338000A5EF19F0120048EC1BF038EC1BF041ECF3
:103390001BF0EEEC18F0BFEC1AF0B4EC15F027ECD3
:1033A00011F081B0D6EF19F0D8EF19F0DCEF19F079
:1033B00044EC17F0CBEF19F081A0E1EF19F0E3EF47
:1033C00019F0CBEF19F01EEC16F0CBEF19F000EF6F
:1033D00000F0000E2C1A000E2D1A000E2E1A800E70
:1033E0002F1A28C001F029C002F02AC003F02BC018
:1033F00004F02CC005F02DC006F02EC007F02FC041
:1034000008F06AEC08F001C028F002C029F003C0FF
:103410002AF004C02BF01200F20E696EEFC06AF0C1
:10342000F0C06BF0000E6E6E000E6D6E000E756ECD
:10343000000E746E6A0E0001EC6FF1C0EDF0690EC3
:10344000EE6F2CEC1AF06D500001EF25D96E6E5026
:10345000F021DA6EDF6A1200EDC068F038EF1AF082
:10346000ECC05DF0680E5E6EEEC05FF0ACEC0EF08E
:1034700068C0F6FF060EF76E0800F5500009D8A4E4
:1034800044EF1AF046EF1AF030EF1AF0000E000188
:10349000ED6F000EEC6F1200000E0E6E000E0D6E42
:1034A0005BEF1AF00CC001F0026A0BC003F0E7EC0E
:1034B00016F00D4A0E2A0D500924D96E0E500A201E
:1034C000DA6EDF500C6E0C50D8A469EF1AF06BEF77
:1034D0001AF052EF1AF0120001C005F002C006F017
:1034E000032A0304046E04C0F6FF060EF76E05C03F
:1034F000D9FF06C0DAFF054A062A0800F5CFDFFF2C
:10350000DF50D8A486EF1AF088EF1AF070EF1AF0A7
:1035100012000150021003100410D8B492EF1AF0F8
:1035200094EF1AF09CEF1AF0000E011A000E021A26
:10353000000E031A800E041A01C001F002C002F04E
:1035400003C003F004C004F0120008BEAAEF1AF092
:10355000ACEF1AF0B2EF1AF007C007F008C008F09D
:10356000BEEF1AF007C009F008C00AF0091E0A1ED3
:10357000094A0A2A09C007F00AC008F01200820EA0
:10358000016EDE0EE82EFED7012EFCD7C282C2B23B
:10359000CCEF1AF0CEEF1AF0C7EF1AF0C4CF7DF0DF
:1035A0007E6A7D50016EC3507D6E01C07EF01200B8
:1035B00001EE00F0600EEE6AE806FDE100EE80F03C
:1035C000400EEE6AE806FDE100EE77F0090EEE6AC5
:1035D000E806FDE1000EF86E0001C3EF19F0010EE0
:1035E000076E090E086E0850D8A4060E096E010E6B
:1035F0009EEC18F0010E076E090E086E0850D8A454
:10360000060E096E020E9EEC18F012000150030225
:10361000F3CF05F0F4CF06F001500402F350062674
:1036200002500302F350062605C001F006C002F066
:103630001200026E025001140009D8B422EF1BF0F0
:1036400024EF1BF027EF1BF0010E28EF1BF0000EFC
:103650001200066E06B002D0849001D08480420E23
:10366000E82EFED700D08494055042EC15F01200ED
:10367000010E936E000E816E000E946E000E826E2F
:1036800012000D0EC26E0B0EC16E800EC06E1200C7
:0C369000000ED36E000E9B6E12001200A4
:020000040030CA
:0E000000FF02191EFF8181FF0FC00FE00F40AD
:00000001FF
